:100000004EEF00F0959C8C9C93968A960F6A0F5049
:100010001F08D8A031EF00F0030E0D24E96E000E8A
:100020000E20EA6EEFCF10F0000E10BE010E000A97
:10003000D8A41FEF00F095988C9821EF00F09598C8
:100040008C880EC0EAFF0DC0E9FFD890EF36EC3681
:10005000EC36EC36959C8C8C959C8C9C0F2A07EF8B
:1000600000F0959C8C8C959C8C9C93968A8693969C
:100070008A961200EA6A0D0EE96EEF500EE00C0E41
:10008000016E006A002EFED7012EFBD7F70E006E20
:10009000002EFED700D0EF2EF2D71200F86AD09EC5
:1000A000C150C00B0F09C16E070EB46E096A0A6A0F
:1000B0000B6A0C6A949A8B9A086A0850070815E331
:1000C000D8900934010F096ED8900C30800F0C6E57
:1000D00009C004F00CC007F00E6A040E0D6E92DF2A
:1000E000320E0D6EC7DF082AE8D7086A08500708E5
:1000F00019E3D8900A34010F0A6ED8900B30800FA4
:100100000B6E09C004F00CC007F00BC006F00AC06B
:1001100005F00E6A040E0D6E75DF320E0D6EAADF4D
:10012000082AE4D7086A0850070815E3D89009366A
:10013000D8900C3209C004F00CC007F00BC006F0D8
:100140000AC005F00E6A040E0D6E5CDF320E0D6EF5
:1001500091DF082AE8D7086A0850070811E3D89009
:100160000A36D8900B320BC006F00AC005F00E6AB2
:10017000040E0D6E47DF320E0D6E7CDF082AECD7C1
:10018000086A0850070815E3D8900B34010F0B6E6E
:10019000D8900A30800F0A6E0BC006F00AC005F036
:1001A0000E6A040E0D6E2EDF320E0D6E63DF082A0E
:1001B000E8D7086A0850070819E3D8900C34010FF3
:1001C0000C6ED8900930800F096E09C004F00CC085
:1001D00007F00BC006F00AC005F00E6A040E0D6EA3
:1001E00011DF320E0D6E46DF082AE4D7086A085088
:1001F000070815E3D8900936D8900C3209C004F0EE
:100200000CC007F00BC006F00AC005F00E6A040E21
:100210000D6EF8DE320E0D6E2DDF082AE8D7086A63
:100220000850070811E3D8900B32D8900A360BC05B
:1002300006F00AC005F00E6A040E0D6EE3DE320E03
:0C0240000D6E18DF082AECD737D703003A
:020000040030CA
:0E00000000C21E1EF385B100FFC0FFE0FF40EE
:00000001FF
;PIC18F6722
;CRC=0AED  CREATED="27-Thg8-25 13:50"
