:100000004AEF00F0959C8C9C93968A96010E0F6E99
:100010000F502008D8A031EF00F0030E0D24016E20
:10002000000E0E20036E01C0E9FFEA6EEF50800B58
:10003000D8A41FEF00F095988C9821EF00F09598C8
:100040008C880EC0EAFF0DC0E9FFD890EF36EC3681
:10005000EC36EC36959C8C8C959C8C9C0F2A08EF8A
:1000600000F093968A8693968A961200EA6A0D0E9D
:10007000E96EEF500EE00C0E016E006A002EFED706
:10008000012EFBD7F70E006E002EFED700D0EF2E0C
:10009000F2D71200F86AD09EC150C00B0F09C16E92
:1000A000070EB46E096A0A6A0B6A0C6A949A8B9AF4
:1000B000096A0A6A0B6A0C6A800E0A6E0AC005F0A9
:1000C0000E6A040E0D6E9EDFC80E0D6ECFDF400E61
:1000D0000A6E0AC005F00E6A040E0D6E93DFC80E9C
:1000E0000D6EC4DFC00E0A6E0AC005F00E6A040E63
:0E00F0000D6E88DFC80E0D6EB9DFDAD7030083
:020000040030CA
:0E00000000C21E1EF385B100FFC0FFE0FF40EE
:00000001FF
;PIC18F6722
;CRC=4182  CREATED="03-Thg9-25 10:52"
