:1000000076EF00F0959C8C9C93968A96010E116E6B
:1000100011502008D8A031EF00F0030E0F24016E1C
:10002000000E1020036E01C0E9FFEA6EEF50800B56
:10003000D8A41FEF00F095988C9821EF00F09598C8
:100040008C8810C0EAFF0FC0E9FFD890EF36EC367D
:10005000EC36EC36959C8C8C959C8C9C112A08EF88
:1000600000F093968A8693968A961200959C8C9CB3
:1000700097988E98010E116E115010081EE3010E14
:100080000F24016E000E1020036E01C0E9FFEA6E1E
:10009000EF50800B03E195988C9802D095988C884E
:1000A00010C0EAFF0FC0E9FFD890EF36EC36959C00
:1000B0008C8C959C8C9C112ADFD797988E8897986A
:1000C0008E981200EA6A0F0EE96EEF500EE00C0EE9
:1000D000016E006A002EFED7012EFBD7F70E006ED0
:1000E000002EFED700D0EF2EF2D71200F86AD09E75
:1000F000C150C00B0F09C16E070EB46E0A6A949A04
:100100008B9A97988E8893968A86979C8E9C0B6A7A
:100110000C6A0D6A0E6A0A6A0A5007081FE3D89033
:100120000B34010F0B6E0BC006F0106A060E0F6E3B
:1001300069DF200E056E0A50070806E1200E056EE5
:10014000106A040E0F6E92DFC80E0F6EBBDF056AD9
:10015000106A040E0F6E8ADF0A2ADED70A6A0A5076
:1001600007081FE3D8900C34010F0C6E0BC006F08B
:100170000CC007F0106A060E0F6E44DF0A50070825
:1001800006E1200E056E106A040E0F6E6FDFC80EBA
:100190000F6E98DF056A106A040E0F6E67DF0A2A79
:0601A000DED7B5D7030015
:020000040030CA
:0E00000000C21E1EF385B100FFC0FFE0FF40EE
:00000001FF
;PIC18F6722
;CRC=5F84  CREATED="03-Thg9-25 16:06"
