:100000004AEF00F0959C8C9C93968A96010E0F6E99
:100010000F502008D8A031EF00F0030E0D24016E20
:10002000000E0E20036E01C0E9FFEA6EEF50800B58
:10003000D8A41FEF00F095988C9821EF00F09598C8
:100040008C880EC0EAFF0DC0E9FFD890EF36EC3681
:10005000EC36EC36959C8C8C959C8C9C0F2A08EF8A
:1000600000F093968A8693968A961200EA6A0D0E9D
:10007000E96EEF500EE00C0E016E006A002EFED706
:10008000012EFBD7F70E006E002EFED700D0EF2E0C
:10009000F2D71200F86AD09EC150C00B0F09C16E92
:1000A000070EB46E0A6A096A0C6A0B6A949A8B9AF4
:1000B000086A08501F0824E3D89009340D6E0A34EA
:1000C0000E6E010E0D24096E000E0E200A6ED890E1
:1000D0000C300E6E0B300B6E800E0E240C6E09C0B1
:1000E00004F00AC005F00BC006F00CC007F00E6A61
:1000F000040E0D6E87DF640E0D6EB8DF082AD9D7A7
:10010000086A08501F0817E3D89009360A36D890B5
:100110000C320B3209C004F00AC005F00BC006F027
:100120000CC007F00E6A040E0D6E6CDF640E0D6ECF
:0A0130009DDF082AE6D7BCD70300C4
:020000040030CA
:0E00000000C21E1EF385B100FFC0FFE0FF40EE
:00000001FF
;PIC18F6722
;CRC=118A  CREATED="27-Thg8-25 15:34"
