:100000004AEF00F0959C8C9C93968A96010E116E97
:1000100011502008D8A031EF00F0030E0F24016E1C
:10002000000E1020036E01C0E9FFEA6EEF50800B56
:10003000D8A41FEF00F095988C9821EF00F09598C8
:100040008C8810C0EAFF0FC0E9FFD890EF36EC367D
:10005000EC36EC36959C8C8C959C8C9C112A08EF88
:1000600000F093968A8693968A961200EA6A0F0E9B
:10007000E96EEF500EE00C0E016E006A002EFED706
:10008000012EFBD7F70E006E002EFED700D0EF2E0C
:10009000F2D71200F86AD09EC150C00B0F09C16E92
:1000A000070EB46E096A0A6A949A8B9A0B6A0C6AF4
:1000B0000D6A0E6A086A0850070821E3D8900B34CD
:1000C000010F0B6ED8900C30800F0C6ED8900E3054
:1000D000800F0E6ED8900D34010F0D6E0BC004F022
:1000E0000EC007F00DC006F00CC005F0106A040E3B
:1000F0000F6E88DF320E0F6EB9DF082ADCD70B6A6D
:100100000C6A0D6A0E6A086A0850070821E3D89045
:100110000B30800F0B6ED8900C34010F0C6ED89002
:100120000E34010F0E6ED8900D30800F0D6E0BC087
:1001300004F00EC007F00DC006F00CC005F0106A08
:10014000040E0F6E5FDF320E0F6E90DF082ADCD7D1
:04015000ADD7030024
:020000040030CA
:0E00000000C21E1EF385B100FFC0FFE0FF40EE
:00000001FF
;PIC18F6722
;CRC=45BF  CREATED="03-Thg9-25 14:42"
