:100000004AEF00F0959C8C9C93968A96010E0A6E9E
:100010000A502008D8A031EF00F0030E0824016E2A
:10002000000E0920036E01C0E9FFEA6EEF50800B5D
:10003000D8A41FEF00F095988C9821EF00F09598C8
:100040008C8809C0EAFF08C0E9FFD890EF36EC368B
:10005000EC36EC36959C8C8C959C8C9C0A2A08EF8F
:1000600000F093968A8693968A961200EA6A090EA1
:10007000E96EEF500EE00C0E016E006A002EFED706
:10008000012EFBD7F70E006E002EFED700D0EF2E0C
:10009000F2D71200F86AD09EC150C00B0F09C16E92
:1000A000070EB46E949A8B9A550E046E056E066E0A
:1000B000076E096A040E086EA5DF020E086EFA0EBE
:1000C000096ED4DF082EFBD7AA0E046E056E066EED
:1000D000076E096A040E086E95DF020E086EFA0EAE
:0C00E000096EC4DF082EFBD7DFD7030039
:020000040030CA
:0E00000000C21E1EF385B100FFC0FFE0FF40EE
:00000001FF
;PIC18F6722
;CRC=57DC  CREATED="27-Thg8-25 16:05"
